:100000000C9434000C9446000C9446000C9446006A
:100010000C9446000C9446000C9446000C94460048
:100020000C9446000C9446000C9446000C94460038
:100030000C9446000C9446000C9446000C94460028
:100040000C9446000C9446000C94A1000C944600BD
:100050000C9446000C9446000C9446000C94460008
:100060000C9446000C94460011241FBECFEFD8E03C
:10007000DEBFCDBF21E0A0E0B1E001C01D92A13004
:10008000B207E1F70E9464000C94DC000C940000BD
:100090009B01AC0160E472E48FE090E00E94BA0042
:1000A000215031093093C5002093C400E1ECF0E009
:1000B000808188618083A2ECB0E08C9186608C9313
:1000C000808180688083089560E875E280E090E038
:1000D0000E9448007894549A559A569A579A2FEF4E
:1000E00081EE94E0215080409040E1F700C0000094
:1000F00080910001813309F45C9A80910001823380
:1001000009F45C9880910001833309F45D9A809131
:100110000001843309F45D9880910001853309F46E
:100120005E9A80910001863309F45E988091000107
:10013000873309F45F9A809100018833C9F65F988C
:10014000D7CF1F920F920FB60F9211248F93EF9378
:10015000FF93E0ECF0E080818823ECF78091C6000B
:1001600080930001FF91EF918F910F900FBE0F9040
:100170001F901895A1E21A2EAA1BBB1BFD010DC0F2
:10018000AA1FBB1FEE1FFF1FA217B307E407F50747
:1001900020F0A21BB30BE40BF50B661F771F881F23
:1001A000991F1A9469F760957095809590959B01B9
:0C01B000AC01BD01CF010895F894FFCF11
:00000001FF
